:100000000C947A000C94F5000C94F5000C94F50017
:100010000C94F5000C94F5000C94F5000C94F5008C
:100020000C94F5000C94F5000C94F5000C94F5007C
:100030000C94F5000C94F5000C94F5000C94F5006C
:100040000C94F5000C94F5000C94F5000C94F5005C
:100050000C94F5000C94F5000C94F5000C94F5004C
:100060000C94F5000C9486000C94F5000C94F500AB
:100070000C94F5000C94F5000C94F5000C94F5002C
:100080000C94F5000C94F5000C94F5000C94F5001C
:100090000C94F5000C94F5000C94F5000C94F5000C
:1000A0000C94F5000C94F5000C94F5000C94F500FC
:1000B0000C94F5000C94F5000C94F5000C94F500EC
:1000C0000C94F5000C94F5000C94F5000C94F500DC
:1000D0000C94F5000C94F5000C94F5000C94F500CC
:1000E0000C94F5000C94F5000C94F5000C94F500BC
:1000F0000C94F50011241FBECFEFCDBFDFE7DEBFAC
:0C0100000E94BA000C94DE00F894FFCFBF
:10010C001F920F920FB60F9211240BB60F922F93D2
:10011C003F934F935F936F937F938F939F93AF9383
:10012C00BF93EF93FF930E94F000882321F084E0AB
:10013C008093050403C084E08093060481E08093DF
:10014C008706FF91EF91BF91AF919F918F917F9116
:10015C006F915F914F913F912F910F900BBE0F902C
:08016C000FBE0F901F901895C3
:100174000E94CE001092B40084E08093010478942D
:100184000E94E900E0E5F0E0808181608083889549
:0801940080818E7F8083F8CF8B
:10019C00E0E6F4E084E08283828BE0E8F6E083E042
:1001AC00828381E8808389E1858381E08683089559
:1001BC00EC010E94FA000E94F900CE010E94FB00A3
:0601CC00CE010E94F700C5
:0E01D200E0E5F0E08081897F826080830895FF
:0A01E00080918706829581700895D2
:0401EA000C94000071
:0401EE000E948400E7
:0201F20008956E
:0201F40008956C
:0201F60008956A
:00000001FF
