:100000000C947A000C940F010C940F010C940F01C6
:100010000C940F010C940F010C940F010C940F0120
:100020000C940F010C9486000C940F010C940F019A
:100030000C940F010C940F010C940F010C940F0100
:100040000C940F010C940F010C940F010C940F01F0
:100050000C940F010C940F010C940F010C940F01E0
:100060000C940F010C940F010C940F010C940F01D0
:100070000C940F010C940F010C940F010C940F01C0
:100080000C940F010C940F010C940F010C940F01B0
:100090000C940F010C940F010C940F010C940F01A0
:1000A0000C940F010C940F010C940F010C940F0190
:1000B0000C940F010C940F010C940F010C940F0180
:1000C0000C940F010C940F010C940F010C940F0170
:1000D0000C940F010C940F010C940F010C940F0160
:1000E0000C940F010C940F010C940F010C940F0150
:1000F0000C940F0111241FBECFEFCDBFDFE7DEBF91
:0C0100000E94D7000C94F800F894FFCF88
:10010C001F920F920FB60F9211240BB60F922F93D2
:10011C003F934F935F936F937F938F939F93AF9383
:10012C00BF93EF93FF930E940A01882321F084E090
:10013C008093050403C084E08093060481E08093DF
:10014C000B0AFF91EF91BF91AF919F918F917F918E
:10015C006F915F914F913F912F910F900BBE0F902C
:08016C000FBE0F901F901895C3
:10017400E0E2F4E09CE093878FEF8487E0E4F4E02E
:1001840093878487E0E8F4E093878487E0E6F4E0EB
:1001940084E08283828BE0E8F6E083E0828381E975
:0A01A4008083118289E185830895AC
:1001AE000E94BA001092B40084E0809301040E9471
:1001BE00ED0078940E940301E0E5F0E0808181601B
:0C01CE008083889580818E7F8083F8CF2D
:1001DA00E0E0FAE080E29EE486A397A381E08287CA
:0601EA0083E88083089504
:1001F000EC010E9414010E941301CE010E9415011E
:06020000CE010E94110175
:0E020600E0E5F0E08081897F826080830895CA
:0A021400809187068295817008959D
:04021E000C9400003C
:040222000E948400B2
:02022600089539
:02022800089537
:02022A00089535
:00000001FF
