:100000000C947A000C9407010C9407010C940701DE
:100010000C9407010C9407010C9407010C94070140
:100020000C9407010C9407010C9407010C94070130
:100030000C9407010C9407010C9407010C94070120
:100040000C9407010C9407010C9407010C94070110
:100050000C9407010C9407010C9407010C94070100
:100060000C9407010C9407010C9407010C940701F0
:100070000C9407010C9407010C9407010C940701E0
:100080000C9407010C9407010C9407010C940701D0
:100090000C9407010C9407010C9407010C940701C0
:1000A0000C9407010C9407010C9407010C940701B0
:1000B0000C9407010C9407010C9407010C940701A0
:1000C0000C9407010C9407010C9407010C94070190
:1000D0000C9407010C9407010C9407010C94070180
:1000E0000C9407010C9407010C9407010C94070170
:1000F0000C94070111241FBECFEFCDBFDFE7DEBF99
:0C0100000E94BC000C94EE00F894FFCFAD
:10010C00CF93DF9340E054E08CE0DA011B968C93A4
:10011C0020E234E0F9018387C0E4D4E08B87E0E689
:10012C00F4E0838760E874E0DB011B968C9394E029
:10013C00928B8FEFDA011C968C93D9011C968C93C1
:10014C008C878487DB011C968C939283928BE0E8DE
:10015C00F6E083E0828381E9808389E185831682DE
:0C016C0080E280931002DF91CF91089593
:100178002BE030E088ED84BF209361000E94860068
:100188001092B4000E94F9000E94D9000E94000158
:1001980084E08093A000E0E5F0E0808181608083C6
:0A01A800889580818E7F8083FFCF51
:1001B200E0E0F8E0158216821092000A1092000B1D
:1001C200109200061092A006E0E0F4E01082108A7D
:0A01D20010924009109203090895ED
:1001DC00EC010E940C010E940B01CE010E940D014A
:0601EC00CE010E94090192
:0E01F20084E08093010481E080932D02089543
:0E020000E0E5F0E08081897F826080830895D0
:04020E000C9400004C
:040212000E948400C2
:02021600089549
:02021800089547
:02021A00089545
:00000001FF
