:100000000C947A000C9401010C9401010C940101F0
:100010000C9401010C9401010C9401010C94010158
:100020000C9401010C9401010C9401010C94010148
:100030000C9401010C9401010C9401010C94010138
:100040000C9401010C9401010C9401010C94010128
:100050000C9401010C9401010C9401010C94010118
:100060000C9401010C9401010C9401010C94010108
:100070000C9401010C9401010C9401010C940101F8
:100080000C9401010C9401010C9401010C940101E8
:100090000C9401010C9401010C9401010C940101D8
:1000A0000C9401010C9401010C9401010C940101C8
:1000B0000C9401010C9401010C9401010C940101B8
:1000C0000C9401010C9401010C9401010C940101A8
:1000D0000C9401010C9401010C9401010C94010198
:1000E0000C9401010C9401010C9401010C94010188
:1000F0000C94010111241FBECFEFCDBFDFE7DEBF9F
:0C0100000E94D4000C94E800F894FFCF9B
:10010C00CF93DF9340E054E08CE0DA011B968C93A4
:10011C0020E234E0F9018387C0E4D4E08B87E0E689
:10012C00F4E0838760E874E0DB011B968C9394E029
:10013C00928B8FEFDA011C968C93D9011C968C93C1
:10014C008C878487DB011C968C939283928BE0E8DE
:10015C00F6E083E0828381E8808389E185831682DF
:0C016C0080E280931002DF91CF91089593
:1001780023E030E088ED84BF20936100E0E0F8E000
:10018800158216821092000A1092000B1092000637
:100198001092A006E0E0F4E01082108A8895089595
:1001A8000E9486001092B4000E94F3000E94BC00D6
:1001B8000E94FA00E0E5F0E0808181608083889504
:0801C80080818E7F8083FFCF50
:1001D000EC010E9406010E940501CE010E94070168
:0601E000CE010E940301A4
:0E01E60084E08093010481E080932D0208954F
:0E01F400E0E5F0E08081897F826080830895DD
:040202000C94000058
:040206000E948400CE
:02020A00089555
:02020C00089553
:02020E00089551
:00000001FF
