:100000000C947A000C94D7000C94D7000C94D70071
:100010000C94D7000C94D7000C94D7000C94D70004
:100020000C94D7000C94D7000C94D7000C94D700F4
:100030000C94D7000C94D7000C94D7000C94D700E4
:100040000C94D7000C94D7000C94D7000C94D700D4
:100050000C94D7000C94D7000C94D7000C94D700C4
:100060000C94D7000C94D7000C94D7000C94D700B4
:100070000C94D7000C94D7000C94D7000C94D700A4
:100080000C94D7000C94D7000C94D7000C94D70094
:100090000C94D7000C94D7000C94D7000C94D70084
:1000A0000C94D7000C94D7000C94D7000C94D70074
:1000B0000C94D7000C94D7000C94D7000C94D70064
:1000C0000C94D7000C94D7000C94D7000C94D70054
:1000D0000C94D7000C94D7000C94D7000C94D70044
:1000E0000C94D7000C94D7000C94D7000C94D70034
:1000F0000C94D70011241FBECFEFCDBFDFE7DEBFCA
:0C0100000E94AD000C94C700F894FFCFE3
:10010C00CF93DF9320E634E094E0F9019283C0E2D0
:10011C00D4E08CE08B87A0E4B4E01B968C931B9707
:10012C0040E854E0FA018387F901928B8FEF8C87BA
:10013C001C968C93FA018487E0E8F6E083E08283D6
:0E014C0089E1858381E48083DF91CF9108955E
:10015A0023E030E088ED84BF209361000E9486008E
:10016A001092B40084E08093010400E014E0C4E03B
:10017A000E94D200882319F0F801C583F9CFF8014B
:04018A00C683F6CF63
:10018E00EC010E94DC000E94DB00CE010E94DD002B
:06019E00CE010E94D90011
:0A01A400809187068295817008950E
:0401AE000C940000AD
:0401B2000E94840023
:0201B6000895AA
:0201B8000895A8
:0201BA000895A6
:00000001FF
